{"abi":[{"type":"constructor","inputs":[{"name":"name_","type":"string","internalType":"string"},{"name":"symbol_","type":"string","internalType":"string"},{"name":"initialOwner","type":"address","internalType":"address"},{"name":"initialSigner","type":"address","internalType":"address"}],"stateMutability":"nonpayable"},{"type":"function","name":"achievementName","inputs":[{"name":"","type":"uint256","internalType":"uint256"}],"outputs":[{"name":"","type":"string","internalType":"string"}],"stateMutability":"view"},{"type":"function","name":"achievementThreshold","inputs":[{"name":"","type":"uint256","internalType":"uint256"}],"outputs":[{"name":"","type":"uint256","internalType":"uint256"}],"stateMutability":"view"},{"type":"function","name":"approve","inputs":[{"name":"to","type":"address","internalType":"address"},{"name":"tokenId","type":"uint256","internalType":"uint256"}],"outputs":[],"stateMutability":"nonpayable"},{"type":"function","name":"balanceOf","inputs":[{"name":"owner","type":"address","internalType":"address"}],"outputs":[{"name":"","type":"uint256","internalType":"uint256"}],"stateMutability":"view"},{"type":"function","name":"claimed","inputs":[{"name":"","type":"uint256","internalType":"uint256"},{"name":"","type":"address","internalType":"address"}],"outputs":[{"name":"","type":"bool","internalType":"bool"}],"stateMutability":"view"},{"type":"function","name":"defaultThreshold","inputs":[],"outputs":[{"name":"","type":"uint256","internalType":"uint256"}],"stateMutability":"view"},{"type":"function","name":"eip712Domain","inputs":[],"outputs":[{"name":"fields","type":"bytes1","internalType":"bytes1"},{"name":"name","type":"string","internalType":"string"},{"name":"version","type":"string","internalType":"string"},{"name":"chainId","type":"uint256","internalType":"uint256"},{"name":"verifyingContract","type":"address","internalType":"address"},{"name":"salt","type":"bytes32","internalType":"bytes32"},{"name":"extensions","type":"uint256[]","internalType":"uint256[]"}],"stateMutability":"view"},{"type":"function","name":"getApproved","inputs":[{"name":"tokenId","type":"uint256","internalType":"uint256"}],"outputs":[{"name":"","type":"address","internalType":"address"}],"stateMutability":"view"},{"type":"function","name":"isApprovedForAll","inputs":[{"name":"owner","type":"address","internalType":"address"},{"name":"operator","type":"address","internalType":"address"}],"outputs":[{"name":"","type":"bool","internalType":"bool"}],"stateMutability":"view"},{"type":"function","name":"mintMyAchievement","inputs":[{"name":"achievementId","type":"uint256","internalType":"uint256"},{"name":"timeSec","type":"uint32","internalType":"uint32"},{"name":"signature","type":"bytes","internalType":"bytes"}],"outputs":[{"name":"tokenId","type":"uint256","internalType":"uint256"}],"stateMutability":"nonpayable"},{"type":"function","name":"name","inputs":[],"outputs":[{"name":"","type":"string","internalType":"string"}],"stateMutability":"view"},{"type":"function","name":"owner","inputs":[],"outputs":[{"name":"","type":"address","internalType":"address"}],"stateMutability":"view"},{"type":"function","name":"ownerOf","inputs":[{"name":"tokenId","type":"uint256","internalType":"uint256"}],"outputs":[{"name":"","type":"address","internalType":"address"}],"stateMutability":"view"},{"type":"function","name":"renounceOwnership","inputs":[],"outputs":[],"stateMutability":"nonpayable"},{"type":"function","name":"safeTransferFrom","inputs":[{"name":"from","type":"address","internalType":"address"},{"name":"to","type":"address","internalType":"address"},{"name":"tokenId","type":"uint256","internalType":"uint256"}],"outputs":[],"stateMutability":"nonpayable"},{"type":"function","name":"safeTransferFrom","inputs":[{"name":"from","type":"address","internalType":"address"},{"name":"to","type":"address","internalType":"address"},{"name":"tokenId","type":"uint256","internalType":"uint256"},{"name":"data","type":"bytes","internalType":"bytes"}],"outputs":[],"stateMutability":"nonpayable"},{"type":"function","name":"setAchievementName","inputs":[{"name":"achievementId","type":"uint256","internalType":"uint256"},{"name":"name_","type":"string","internalType":"string"}],"outputs":[],"stateMutability":"nonpayable"},{"type":"function","name":"setAchievementThreshold","inputs":[{"name":"achievementId","type":"uint256","internalType":"uint256"},{"name":"thresholdSec","type":"uint256","internalType":"uint256"}],"outputs":[],"stateMutability":"nonpayable"},{"type":"function","name":"setApprovalForAll","inputs":[{"name":"operator","type":"address","internalType":"address"},{"name":"approved","type":"bool","internalType":"bool"}],"outputs":[],"stateMutability":"nonpayable"},{"type":"function","name":"setDefaultThreshold","inputs":[{"name":"thresholdSec","type":"uint256","internalType":"uint256"}],"outputs":[],"stateMutability":"nonpayable"},{"type":"function","name":"setSigner","inputs":[{"name":"newSigner","type":"address","internalType":"address"}],"outputs":[],"stateMutability":"nonpayable"},{"type":"function","name":"signer","inputs":[],"outputs":[{"name":"","type":"address","internalType":"address"}],"stateMutability":"view"},{"type":"function","name":"supportsInterface","inputs":[{"name":"interfaceId","type":"bytes4","internalType":"bytes4"}],"outputs":[{"name":"","type":"bool","internalType":"bool"}],"stateMutability":"view"},{"type":"function","name":"symbol","inputs":[],"outputs":[{"name":"","type":"string","internalType":"string"}],"stateMutability":"view"},{"type":"function","name":"tokenData","inputs":[{"name":"","type":"uint256","internalType":"uint256"}],"outputs":[{"name":"achievementId","type":"uint256","internalType":"uint256"},{"name":"timeSec","type":"uint32","internalType":"uint32"},{"name":"player","type":"address","internalType":"address"}],"stateMutability":"view"},{"type":"function","name":"tokenURI","inputs":[{"name":"tokenId","type":"uint256","internalType":"uint256"}],"outputs":[{"name":"","type":"string","internalType":"string"}],"stateMutability":"view"},{"type":"function","name":"transferFrom","inputs":[{"name":"from","type":"address","internalType":"address"},{"name":"to","type":"address","internalType":"address"},{"name":"tokenId","type":"uint256","internalType":"uint256"}],"outputs":[],"stateMutability":"nonpayable"},{"type":"function","name":"transferOwnership","inputs":[{"name":"newOwner","type":"address","internalType":"address"}],"outputs":[],"stateMutability":"nonpayable"},{"type":"event","name":"AchievementMinted","inputs":[{"name":"to","type":"address","indexed":true,"internalType":"address"},{"name":"tokenId","type":"uint256","indexed":true,"internalType":"uint256"},{"name":"achievementId","type":"uint256","indexed":true,"internalType":"uint256"},{"name":"timeSec","type":"uint32","indexed":false,"internalType":"uint32"}],"anonymous":false},{"type":"event","name":"AchievementNameUpdated","inputs":[{"name":"achievementId","type":"uint256","indexed":true,"internalType":"uint256"},{"name":"name","type":"string","indexed":false,"internalType":"string"}],"anonymous":false},{"type":"event","name":"AchievementThresholdUpdated","inputs":[{"name":"achievementId","type":"uint256","indexed":true,"internalType":"uint256"},{"name":"newThreshold","type":"uint256","indexed":false,"internalType":"uint256"}],"anonymous":false},{"type":"event","name":"Approval","inputs":[{"name":"owner","type":"address","indexed":true,"internalType":"address"},{"name":"approved","type":"address","indexed":true,"internalType":"address"},{"name":"tokenId","type":"uint256","indexed":true,"internalType":"uint256"}],"anonymous":false},{"type":"event","name":"ApprovalForAll","inputs":[{"name":"owner","type":"address","indexed":true,"internalType":"address"},{"name":"operator","type":"address","indexed":true,"internalType":"address"},{"name":"approved","type":"bool","indexed":false,"internalType":"bool"}],"anonymous":false},{"type":"event","name":"DefaultThresholdUpdated","inputs":[{"name":"newThreshold","type":"uint256","indexed":false,"internalType":"uint256"}],"anonymous":false},{"type":"event","name":"EIP712DomainChanged","inputs":[],"anonymous":false},{"type":"event","name":"OwnershipTransferred","inputs":[{"name":"previousOwner","type":"address","indexed":true,"internalType":"address"},{"name":"newOwner","type":"address","indexed":true,"internalType":"address"}],"anonymous":false},{"type":"event","name":"SignerUpdated","inputs":[{"name":"newSigner","type":"address","indexed":true,"internalType":"address"}],"anonymous":false},{"type":"event","name":"Transfer","inputs":[{"name":"from","type":"address","indexed":true,"internalType":"address"},{"name":"to","type":"address","indexed":true,"internalType":"address"},{"name":"tokenId","type":"uint256","indexed":true,"internalType":"uint256"}],"anonymous":false},{"type":"error","name":"ECDSAInvalidSignature","inputs":[]},{"type":"error","name":"ECDSAInvalidSignatureLength","inputs":[{"name":"length","type":"uint256","internalType":"uint256"}]},{"type":"error","name":"ECDSAInvalidSignatureS","inputs":[{"name":"s","type":"bytes32","internalType":"bytes32"}]},{"type":"error","name":"ERC721IncorrectOwner","inputs":[{"name":"sender","type":"address","internalType":"address"},{"name":"tokenId","type":"uint256","internalType":"uint256"},{"name":"owner","type":"address","internalType":"address"}]},{"type":"error","name":"ERC721InsufficientApproval","inputs":[{"name":"operator","type":"address","internalType":"address"},{"name":"tokenId","type":"uint256","internalType":"uint256"}]},{"type":"error","name":"ERC721InvalidApprover","inputs":[{"name":"approver","type":"address","internalType":"address"}]},{"type":"error","name":"ERC721InvalidOperator","inputs":[{"name":"operator","type":"address","internalType":"address"}]},{"type":"error","name":"ERC721InvalidOwner","inputs":[{"name":"owner","type":"address","internalType":"address"}]},{"type":"error","name":"ERC721InvalidReceiver","inputs":[{"name":"receiver","type":"address","internalType":"address"}]},{"type":"error","name":"ERC721InvalidSender","inputs":[{"name":"sender","type":"address","internalType":"address"}]},{"type":"error","name":"ERC721NonexistentToken","inputs":[{"name":"tokenId","type":"uint256","internalType":"uint256"}]},{"type":"error","name":"InvalidShortString","inputs":[]},{"type":"error","name":"OwnableInvalidOwner","inputs":[{"name":"owner","type":"address","internalType":"address"}]},{"type":"error","name":"OwnableUnauthorizedAccount","inputs":[{"name":"account","type":"address","internalType":"address"}]},{"type":"error","name":"StringTooLong","inputs":[{"name":"str","type":"string","internalType":"string"}]}],"bytecode":{"object":"0x6101606040526001600955603c600b5534801561001a575f5ffd5b50604051615ace380380615ace833981810160405281019061003c91906105cc565b836040518060400160405280600181526020017f3100000000000000000000000000000000000000000000000000000000000000815250838686815f90816100849190610878565b5080600190816100949190610878565b5050505f73ffffffffffffffffffffffffffffffffffffffff168173ffffffffffffffffffffffffffffffffffffffff1603610107575f6040517f1e4fbdf70000000000000000000000000000000000000000000000000000000081526004016100fe9190610956565b60405180910390fd5b6101168161024d60201b60201c565b5061012b60078361031060201b90919060201c565b610120818152505061014760088261031060201b90919060201c565b6101408181525050818051906020012060e08181525050808051906020012061010081815250504660a0818152505061018461035d60201b60201c565b608081815250503073ffffffffffffffffffffffffffffffffffffffff1660c08173ffffffffffffffffffffffffffffffffffffffff1681525050505080600a5f6101000a81548173ffffffffffffffffffffffffffffffffffffffff021916908373ffffffffffffffffffffffffffffffffffffffff1602179055508073ffffffffffffffffffffffffffffffffffffffff167f5553331329228fbd4123164423717a4a7539f6dfa1c3279a923b98fd681a6c7360405160405180910390a250505050610ae2565b5f60065f9054906101000a900473ffffffffffffffffffffffffffffffffffffffff1690508160065f6101000a81548173ffffffffffffffffffffffffffffffffffffffff021916908373ffffffffffffffffffffffffffffffffffffffff1602179055508173ffffffffffffffffffffffffffffffffffffffff168173ffffffffffffffffffffffffffffffffffffffff167f8be0079c531659141344cd1fd0a4f28419497f9722a3daafe3b4186f6b6457e060405160405180910390a35050565b5f6020835110156103315761032a836103b760201b60201c565b9050610357565b826103418361041c60201b60201c565b5f01908161034f9190610878565b5060ff5f1b90505b92915050565b5f7f8b73c3c69bb8fe3d512ecc4cf759cc79239f7b179b0ffacaa9a75d522b39400f60e05161010051463060405160200161039c959493929190610996565b60405160208183030381529060405280519060200120905090565b5f5f829050601f8151111561040357826040517f305a27a90000000000000000000000000000000000000000000000000000000081526004016103fa9190610a2f565b60405180910390fd5b80518161040f90610a7c565b5f1c175f1b915050919050565b5f819050919050565b5f604051905090565b5f5ffd5b5f5ffd5b5f5ffd5b5f5ffd5b5f601f19601f8301169050919050565b7f4e487b71000000000000000000000000000000000000000000000000000000005f52604160045260245ffd5b6104848261043e565b810181811067ffffffffffffffff821117156104a3576104a261044e565b5b80604052505050565b5f6104b5610425565b90506104c1828261047b565b919050565b5f67ffffffffffffffff8211156104e0576104df61044e565b5b6104e98261043e565b9050602081019050919050565b8281835e5f83830152505050565b5f610516610511846104c6565b6104ac565b9050828152602081018484840111156105325761053161043a565b5b61053d8482856104f6565b509392505050565b5f82601f83011261055957610558610436565b5b8151610569848260208601610504565b91505092915050565b5f73ffffffffffffffffffffffffffffffffffffffff82169050919050565b5f61059b82610572565b9050919050565b6105ab81610591565b81146105b5575f5ffd5b50565b5f815190506105c6816105a2565b92915050565b5f5f5f5f608085870312156105e4576105e361042e565b5b5f85015167ffffffffffffffff81111561060157610600610432565b5b61060d87828801610545565b945050602085015167ffffffffffffffff81111561062e5761062d610432565b5b61063a87828801610545565b935050604061064b878288016105b8565b925050606061065c878288016105b8565b91505092959194509250565b5f81519050919050565b7f4e487b71000000000000000000000000000000000000000000000000000000005f52602260045260245ffd5b5f60028204905060018216806106b657607f821691505b6020821081036106c9576106c8610672565b5b50919050565b5f819050815f5260205f209050919050565b5f6020601f8301049050919050565b5f82821b905092915050565b5f6008830261072b7fffffffffffffffffffffffffffffffffffffffffffffffffffffffffffffffff826106f0565b61073586836106f0565b95508019841693508086168417925050509392505050565b5f819050919050565b5f819050919050565b5f61077961077461076f8461074d565b610756565b61074d565b9050919050565b5f819050919050565b6107928361075f565b6107a661079e82610780565b8484546106fc565b825550505050565b5f5f905090565b6107bd6107ae565b6107c8818484610789565b505050565b5b818110156107eb576107e05f826107b5565b6001810190506107ce565b5050565b601f82111561083057610801816106cf565b61080a846106e1565b81016020851015610819578190505b61082d610825856106e1565b8301826107cd565b50505b505050565b5f82821c905092915050565b5f6108505f1984600802610835565b1980831691505092915050565b5f6108688383610841565b9150826002028217905092915050565b61088182610668565b67ffffffffffffffff81111561089a5761089961044e565b5b6108a4825461069f565b6108af8282856107ef565b5f60209050601f8311600181146108e0575f84156108ce578287015190505b6108d8858261085d565b86555061093f565b601f1984166108ee866106cf565b5f5b82811015610915578489015182556001820191506020850194506020810190506108f0565b86831015610932578489015161092e601f891682610841565b8355505b6001600288020188555050505b505050505050565b61095081610591565b82525050565b5f6020820190506109695f830184610947565b92915050565b5f819050919050565b6109818161096f565b82525050565b6109908161074d565b82525050565b5f60a0820190506109a95f830188610978565b6109b66020830187610978565b6109c36040830186610978565b6109d06060830185610987565b6109dd6080830184610947565b9695505050505050565b5f82825260208201905092915050565b5f610a0182610668565b610a0b81856109e7565b9350610a1b8185602086016104f6565b610a248161043e565b840191505092915050565b5f6020820190508181035f830152610a4781846109f7565b905092915050565b5f81519050919050565b5f819050602082019050919050565b5f610a73825161096f565b80915050919050565b5f610a8682610a4f565b82610a9084610a59565b9050610a9b81610a68565b92506020821015610adb57610ad67fffffffffffffffffffffffffffffffffffffffffffffffffffffffffffffffff836020036008026106f0565b831692505b5050919050565b60805160a05160c05160e051610100516101205161014051614f9b610b335f395f611adb01525f611aa001525f612ec201525f612ea101525f612a9201525f612ae801525f612b110152614f9b5ff3fe608060405234801561000f575f5ffd5b50600436106101c2575f3560e01c806370a08231116100f7578063b4b5b48f11610095578063c87b56dd1161006f578063c87b56dd1461051c578063cdb437851461054c578063e985e9c514610568578063f2fde38b14610598576101c2565b8063b4b5b48f146104b2578063b88d4fde146104e4578063c5246bf514610500576101c2565b80638da5cb5b116100d15780638da5cb5b1461042a5780638f15268a1461044857806395d89b4114610478578063a22cb46514610496576101c2565b806370a08231146103cc578063715018a6146103fc57806384b0196e14610406576101c2565b806321726ae51161016457806342842e0e1161013e57806342842e0e1461034657806353f10a4b146103625780636352211e146103805780636c19e783146103b0576101c2565b806321726ae5146102dc578063238ac9331461030c57806323b872dd1461032a576101c2565b8063081812fc116101a0578063081812fc14610230578063095ea7b314610260578063111b25451461027c578063120aa877146102ac576101c2565b806301ffc9a7146101c657806305ff1ef4146101f657806306fdde0314610212575b5f5ffd5b6101e060048036038101906101db919061305f565b6105b4565b6040516101ed91906130a4565b60405180910390f35b610210600480360381019061020b9190613151565b610695565b005b61021a6106fd565b604051610227919061321e565b60405180910390f35b61024a6004803603810190610245919061323e565b61078c565b60405161025791906132a8565b60405180910390f35b61027a600480360381019061027591906132eb565b6107a7565b005b6102966004803603810190610291919061323e565b6107bd565b6040516102a39190613338565b60405180910390f35b6102c660048036038101906102c19190613351565b6107d2565b6040516102d391906130a4565b60405180910390f35b6102f660048036038101906102f1919061323e565b6107fc565b604051610303919061321e565b60405180910390f35b610314610897565b60405161032191906132a8565b60405180910390f35b610344600480360381019061033f919061338f565b6108bc565b005b610360600480360381019061035b919061338f565b6109bb565b005b61036a6109da565b6040516103779190613338565b60405180910390f35b61039a6004803603810190610395919061323e565b6109e0565b6040516103a791906132a8565b60405180910390f35b6103ca60048036038101906103c591906133df565b6109f1565b005b6103e660048036038101906103e191906133df565b610aed565b6040516103f39190613338565b60405180910390f35b610404610ba3565b005b61040e610bb6565b6040516104219796959493929190613513565b60405180910390f35b610432610c5b565b60405161043f91906132a8565b60405180910390f35b610462600480360381019061045d9190613623565b610c83565b60405161046f9190613338565b60405180910390f35b610480610f5c565b60405161048d919061321e565b60405180910390f35b6104b060048036038101906104ab91906136be565b610fec565b005b6104cc60048036038101906104c7919061323e565b611002565b6040516104db9392919061370b565b60405180910390f35b6104fe60048036038101906104f99190613868565b611057565b005b61051a6004803603810190610515919061323e565b61107c565b005b6105366004803603810190610531919061323e565b611107565b604051610543919061321e565b60405180910390f35b610566600480360381019061056191906138e8565b611495565b005b610582600480360381019061057d9190613926565b6114ef565b60405161058f91906130a4565b60405180910390f35b6105b260048036038101906105ad91906133df565b61157d565b005b5f7f80ac58cd000000000000000000000000000000000000000000000000000000007bffffffffffffffffffffffffffffffffffffffffffffffffffffffff1916827bffffffffffffffffffffffffffffffffffffffffffffffffffffffff1916148061067e57507f5b5e139f000000000000000000000000000000000000000000000000000000007bffffffffffffffffffffffffffffffffffffffffffffffffffffffff1916827bffffffffffffffffffffffffffffffffffffffffffffffffffffffff1916145b8061068e575061068d82611601565b5b9050919050565b61069d61166a565b8181600d5f8681526020019081526020015f2091826106bd929190613b6b565b50827f26b9a1bbe644151d05d347853708f0ec60131fe123840ec0f626f64e8d3d914183836040516106f0929190613c64565b60405180910390a2505050565b60605f805461070b9061399b565b80601f01602080910402602001604051908101604052809291908181526020018280546107379061399b565b80156107825780601f1061075957610100808354040283529160200191610782565b820191905f5260205f20905b81548152906001019060200180831161076557829003601f168201915b5050505050905090565b5f610796826116f1565b506107a082611777565b9050919050565b6107b982826107b46117b0565b6117b7565b5050565b600c602052805f5260405f205f915090505481565b600e602052815f5260405f20602052805f5260405f205f915091509054906101000a900460ff1681565b600d602052805f5260405f205f9150905080546108189061399b565b80601f01602080910402602001604051908101604052809291908181526020018280546108449061399b565b801561088f5780601f106108665761010080835404028352916020019161088f565b820191905f5260205f20905b81548152906001019060200180831161087257829003601f168201915b505050505081565b600a5f9054906101000a900473ffffffffffffffffffffffffffffffffffffffff1681565b5f73ffffffffffffffffffffffffffffffffffffffff168273ffffffffffffffffffffffffffffffffffffffff160361092c575f6040517f64a0ae9200000000000000000000000000000000000000000000000000000000815260040161092391906132a8565b60405180910390fd5b5f61093f838361093a6117b0565b6117c9565b90508373ffffffffffffffffffffffffffffffffffffffff168173ffffffffffffffffffffffffffffffffffffffff16146109b5578382826040517f64283d7b0000000000000000000000000000000000000000000000000000000081526004016109ac93929190613c86565b60405180910390fd5b50505050565b6109d583838360405180602001604052805f815250611057565b505050565b600b5481565b5f6109ea826116f1565b9050919050565b6109f961166a565b5f73ffffffffffffffffffffffffffffffffffffffff168173ffffffffffffffffffffffffffffffffffffffff1603610a67576040517f08c379a0000000000000000000000000000000000000000000000000000000008152600401610a5e90613d05565b60405180910390fd5b80600a5f6101000a81548173ffffffffffffffffffffffffffffffffffffffff021916908373ffffffffffffffffffffffffffffffffffffffff1602179055508073ffffffffffffffffffffffffffffffffffffffff167f5553331329228fbd4123164423717a4a7539f6dfa1c3279a923b98fd681a6c7360405160405180910390a250565b5f5f73ffffffffffffffffffffffffffffffffffffffff168273ffffffffffffffffffffffffffffffffffffffff1603610b5e575f6040517f89c62b64000000000000000000000000000000000000000000000000000000008152600401610b5591906132a8565b60405180910390fd5b60035f8373ffffffffffffffffffffffffffffffffffffffff1673ffffffffffffffffffffffffffffffffffffffff1681526020019081526020015f20549050919050565b610bab61166a565b610bb45f6119d4565b565b5f6060805f5f5f6060610bc7611a97565b610bcf611ad2565b46305f5f1b5f67ffffffffffffffff811115610bee57610bed613744565b5b604051908082528060200260200182016040528015610c1c5781602001602082028036833780820191505090505b507f0f00000000000000000000000000000000000000000000000000000000000000959493929190965096509650965096509650965090919293949596565b5f60065f9054906101000a900473ffffffffffffffffffffffffffffffffffffffff16905090565b5f5f339050600e5f8781526020019081526020015f205f8273ffffffffffffffffffffffffffffffffffffffff1673ffffffffffffffffffffffffffffffffffffffff1681526020019081526020015f205f9054906101000a900460ff1615610d21576040517f08c379a0000000000000000000000000000000000000000000000000000000008152600401610d1890613d6d565b60405180910390fd5b610d2e8187878787611b0d565b610d6d576040517f08c379a0000000000000000000000000000000000000000000000000000000008152600401610d6490613dd5565b60405180910390fd5b610d7686611c18565b8563ffffffff1610610dbd576040517f08c379a0000000000000000000000000000000000000000000000000000000008152600401610db490613e3d565b60405180910390fd5b60095f815480929190610dcf90613e88565b919050559150610ddf8183611c47565b60405180606001604052808781526020018663ffffffff1681526020018273ffffffffffffffffffffffffffffffffffffffff16815250600f5f8481526020019081526020015f205f820151815f01556020820151816001015f6101000a81548163ffffffff021916908363ffffffff16021790555060408201518160010160046101000a81548173ffffffffffffffffffffffffffffffffffffffff021916908373ffffffffffffffffffffffffffffffffffffffff1602179055509050506001600e5f8881526020019081526020015f205f8373ffffffffffffffffffffffffffffffffffffffff1673ffffffffffffffffffffffffffffffffffffffff1681526020019081526020015f205f6101000a81548160ff02191690831515021790555085828273ffffffffffffffffffffffffffffffffffffffff167f4a29d780e3f9b621a60639d45bda7173defbe28a4b4d791e41387002bc06272188604051610f4b9190613ecf565b60405180910390a450949350505050565b606060018054610f6b9061399b565b80601f0160208091040260200160405190810160405280929190818152602001828054610f979061399b565b8015610fe25780601f10610fb957610100808354040283529160200191610fe2565b820191905f5260205f20905b815481529060010190602001808311610fc557829003601f168201915b5050505050905090565b610ffe610ff76117b0565b8383611c64565b5050565b600f602052805f5260405f205f91509050805f015490806001015f9054906101000a900463ffffffff16908060010160049054906101000a900473ffffffffffffffffffffffffffffffffffffffff16905083565b6110628484846108bc565b61107661106d6117b0565b85858585611dcd565b50505050565b61108461166a565b5f81116110c6576040517f08c379a00000000000000000000000000000000000000000000000000000000081526004016110bd90613f32565b60405180910390fd5b80600b819055507f74e220540b8f832845e1e89b5dfdb8b632923018ac953836880d68efcf2160f5816040516110fc9190613338565b60405180910390a150565b60605f73ffffffffffffffffffffffffffffffffffffffff1661112983611f79565b73ffffffffffffffffffffffffffffffffffffffff160361117f576040517f08c379a000000000000000000000000000000000000000000000000000000000815260040161117690613f9a565b60405180910390fd5b5f600f5f8481526020019081526020015f206040518060600160405290815f8201548152602001600182015f9054906101000a900463ffffffff1663ffffffff1663ffffffff1681526020016001820160049054906101000a900473ffffffffffffffffffffffffffffffffffffffff1673ffffffffffffffffffffffffffffffffffffffff1673ffffffffffffffffffffffffffffffffffffffff168152505090505f5f600d5f845f015181526020019081526020015f2080546112439061399b565b90501161127a57611256825f0151611fb2565b6040516020016112669190614018565b604051602081830303815290604052611316565b600d5f835f015181526020019081526020015f2080546112999061399b565b80601f01602080910402602001604051908101604052809291908181526020018280546112c59061399b565b80156113105780601f106112e757610100808354040283529160200191611310565b820191905f5260205f20905b8154815290600101906020018083116112f357829003601f168201915b50505050505b90505f8161132d846020015163ffffffff16611fb2565b60405160200161133e929190614089565b60405160208183030381529060405290505f61135d846040015161207c565b83611371866020015163ffffffff16611fb2565b60405160200161138393929190614162565b60405160208183030381529060405290505f6113a384866020015161227c565b90505f6113af826122bb565b6040516020016113bf91906141f4565b60405160208183030381529060405290505f6113dd875f0151611fb2565b6113f0886020015163ffffffff16611fb2565b6113fd896040015161207c565b61141161140c8b5f0151611c18565b611fb2565b6040516020016114249493929190614471565b60405160208183030381529060405290505f8585848460405160200161144d949392919061463e565b6040516020818303038152906040529050611467816122bb565b6040516020016114779190614728565b60405160208183030381529060405298505050505050505050919050565b61149d61166a565b80600c5f8481526020019081526020015f2081905550817f22c19ffdb93efc8f87e6b006004bd1083c904e2890f6da245cddc82914b93d27826040516114e39190613338565b60405180910390a25050565b5f60055f8473ffffffffffffffffffffffffffffffffffffffff1673ffffffffffffffffffffffffffffffffffffffff1681526020019081526020015f205f8373ffffffffffffffffffffffffffffffffffffffff1673ffffffffffffffffffffffffffffffffffffffff1681526020019081526020015f205f9054906101000a900460ff16905092915050565b61158561166a565b5f73ffffffffffffffffffffffffffffffffffffffff168173ffffffffffffffffffffffffffffffffffffffff16036115f5575f6040517f1e4fbdf70000000000000000000000000000000000000000000000000000000081526004016115ec91906132a8565b60405180910390fd5b6115fe816119d4565b50565b5f7f01ffc9a7000000000000000000000000000000000000000000000000000000007bffffffffffffffffffffffffffffffffffffffffffffffffffffffff1916827bffffffffffffffffffffffffffffffffffffffffffffffffffffffff1916149050919050565b6116726117b0565b73ffffffffffffffffffffffffffffffffffffffff16611690610c5b565b73ffffffffffffffffffffffffffffffffffffffff16146116ef576116b36117b0565b6040517f118cdaa70000000000000000000000000000000000000000000000000000000081526004016116e691906132a8565b60405180910390fd5b565b5f5f6116fc83611f79565b90505f73ffffffffffffffffffffffffffffffffffffffff168173ffffffffffffffffffffffffffffffffffffffff160361176e57826040517f7e2732890000000000000000000000000000000000000000000000000000000081526004016117659190613338565b60405180910390fd5b80915050919050565b5f60045f8381526020019081526020015f205f9054906101000a900473ffffffffffffffffffffffffffffffffffffffff169050919050565b5f33905090565b6117c483838360016122e8565b505050565b5f5f6117d484611f79565b90505f73ffffffffffffffffffffffffffffffffffffffff168373ffffffffffffffffffffffffffffffffffffffff1614611815576118148184866124a7565b5b5f73ffffffffffffffffffffffffffffffffffffffff168173ffffffffffffffffffffffffffffffffffffffff16146118a0576118545f855f5f6122e8565b600160035f8373ffffffffffffffffffffffffffffffffffffffff1673ffffffffffffffffffffffffffffffffffffffff1681526020019081526020015f205f82825403925050819055505b5f73ffffffffffffffffffffffffffffffffffffffff168573ffffffffffffffffffffffffffffffffffffffff161461191f57600160035f8773ffffffffffffffffffffffffffffffffffffffff1673ffffffffffffffffffffffffffffffffffffffff1681526020019081526020015f205f82825401925050819055505b8460025f8681526020019081526020015f205f6101000a81548173ffffffffffffffffffffffffffffffffffffffff021916908373ffffffffffffffffffffffffffffffffffffffff160217905550838573ffffffffffffffffffffffffffffffffffffffff168273ffffffffffffffffffffffffffffffffffffffff167fddf252ad1be2c89b69c2b068fc378daa952ba7f163c4a11628f55a4df523b3ef60405160405180910390a4809150509392505050565b5f60065f9054906101000a900473ffffffffffffffffffffffffffffffffffffffff1690508160065f6101000a81548173ffffffffffffffffffffffffffffffffffffffff021916908373ffffffffffffffffffffffffffffffffffffffff1602179055508173ffffffffffffffffffffffffffffffffffffffff168173ffffffffffffffffffffffffffffffffffffffff167f8be0079c531659141344cd1fd0a4f28419497f9722a3daafe3b4186f6b6457e060405160405180910390a35050565b6060611acd60077f000000000000000000000000000000000000000000000000000000000000000061256a90919063ffffffff16565b905090565b6060611b0860087f000000000000000000000000000000000000000000000000000000000000000061256a90919063ffffffff16565b905090565b5f5f7fb705b12b887d277dcb1151b9a933a57538a0d36f61d92f822fec4e3f86432e6d878787604051602001611b46949392919061474d565b6040516020818303038152906040528051906020012090505f611b6882612617565b90505f611bb88287878080601f0160208091040260200160405190810160405280939291908181526020018383808284375f81840152601f19601f82011690508083019250505050505050612630565b9050600a5f9054906101000a900473ffffffffffffffffffffffffffffffffffffffff1673ffffffffffffffffffffffffffffffffffffffff168173ffffffffffffffffffffffffffffffffffffffff1614935050505095945050505050565b5f5f600c5f8481526020019081526020015f205490505f8114611c3b5780611c3f565b600b545b915050919050565b611c60828260405180602001604052805f81525061265a565b5050565b5f73ffffffffffffffffffffffffffffffffffffffff168273ffffffffffffffffffffffffffffffffffffffff1603611cd457816040517f5b08ba18000000000000000000000000000000000000000000000000000000008152600401611ccb91906132a8565b60405180910390fd5b8060055f8573ffffffffffffffffffffffffffffffffffffffff1673ffffffffffffffffffffffffffffffffffffffff1681526020019081526020015f205f8473ffffffffffffffffffffffffffffffffffffffff1673ffffffffffffffffffffffffffffffffffffffff1681526020019081526020015f205f6101000a81548160ff0219169083151502179055508173ffffffffffffffffffffffffffffffffffffffff168373ffffffffffffffffffffffffffffffffffffffff167f17307eab39ab6107e8899845ad3d59bd9653f200f220920489ca2b5937696c3183604051611dc091906130a4565b60405180910390a3505050565b5f8373ffffffffffffffffffffffffffffffffffffffff163b1115611f72578273ffffffffffffffffffffffffffffffffffffffff1663150b7a02868685856040518563ffffffff1660e01b8152600401611e2b94939291906147e2565b6020604051808303815f875af1925050508015611e6657506040513d601f19601f82011682018060405250810190611e639190614840565b60015b611ee7573d805f8114611e94576040519150601f19603f3d011682016040523d82523d5f602084013e611e99565b606091505b505f815103611edf57836040517f64a0ae92000000000000000000000000000000000000000000000000000000008152600401611ed691906132a8565b60405180910390fd5b805160208201fd5b63150b7a0260e01b7bffffffffffffffffffffffffffffffffffffffffffffffffffffffff1916817bffffffffffffffffffffffffffffffffffffffffffffffffffffffff191614611f7057836040517f64a0ae92000000000000000000000000000000000000000000000000000000008152600401611f6791906132a8565b60405180910390fd5b505b5050505050565b5f60025f8381526020019081526020015f205f9054906101000a900473ffffffffffffffffffffffffffffffffffffffff169050919050565b60605f6001611fc08461267d565b0190505f8167ffffffffffffffff811115611fde57611fdd613744565b5b6040519080825280601f01601f1916602001820160405280156120105781602001600182028036833780820191505090505b5090505f82602083010190505b600115612071578080600190039150507f3031323334353637383961626364656600000000000000000000000000000000600a86061a8153600a85816120665761206561486b565b5b0494505f850361201d575b819350505050919050565b60605f8260601b90505f6040518060400160405280601081526020017f303132333435363738396162636465660000000000000000000000000000000081525090505f602867ffffffffffffffff8111156120da576120d9613744565b5b6040519080825280601f01601f19166020018201604052801561210c5781602001600182028036833780820191505090505b5090505f5f90505b60148110156122705782600485836014811061213357612132614898565b5b1a60f81b7effffffffffffffffffffffffffffffffffffffffffffffffffffffffffffff1916901c60f81c60ff168151811061217257612171614898565b5b602001015160f81c60f81b8260028361218b91906148c5565b8151811061219c5761219b614898565b5b60200101907effffffffffffffffffffffffffffffffffffffffffffffffffffffffffffff191690815f1a90535082600f60f81b8583601481106121e3576121e2614898565b5b1a60f81b1660f81c60ff16815181106121ff576121fe614898565b5b602001015160f81c60f81b82600160028461221a91906148c5565b6122249190614906565b8151811061223557612234614898565b5b60200101907effffffffffffffffffffffffffffffffffffffffffffffffffffffffffffff191690815f1a9053508080600101915050612114565b50809350505050919050565b60605f61228e8363ffffffff16611fb2565b905083816040516020016122a3929190614d2d565b60405160208183030381529060405291505092915050565b60606122e182604051806060016040528060408152602001614f266040913960016127ce565b9050919050565b808061232057505f73ffffffffffffffffffffffffffffffffffffffff168273ffffffffffffffffffffffffffffffffffffffff1614155b15612452575f61232f846116f1565b90505f73ffffffffffffffffffffffffffffffffffffffff168373ffffffffffffffffffffffffffffffffffffffff161415801561239957508273ffffffffffffffffffffffffffffffffffffffff168173ffffffffffffffffffffffffffffffffffffffff1614155b80156123ac57506123aa81846114ef565b155b156123ee57826040517fa9fbf51f0000000000000000000000000000000000000000000000000000000081526004016123e591906132a8565b60405180910390fd5b811561245057838573ffffffffffffffffffffffffffffffffffffffff168273ffffffffffffffffffffffffffffffffffffffff167f8c5be1e5ebec7d5bd14f71427d1e84f3dd0314c0f7b2291e5b200ac8c7c3b92560405160405180910390a45b505b8360045f8581526020019081526020015f205f6101000a81548173ffffffffffffffffffffffffffffffffffffffff021916908373ffffffffffffffffffffffffffffffffffffffff16021790555050505050565b6124b283838361295d565b612565575f73ffffffffffffffffffffffffffffffffffffffff168373ffffffffffffffffffffffffffffffffffffffff160361252657806040517f7e27328900000000000000000000000000000000000000000000000000000000815260040161251d9190613338565b60405180910390fd5b81816040517f177e802f00000000000000000000000000000000000000000000000000000000815260040161255c929190614dd9565b60405180910390fd5b505050565b606060ff5f1b83146125865761257f83612a1d565b9050612611565b8180546125929061399b565b80601f01602080910402602001604051908101604052809291908181526020018280546125be9061399b565b80156126095780601f106125e057610100808354040283529160200191612609565b820191905f5260205f20905b8154815290600101906020018083116125ec57829003601f168201915b505050505090505b92915050565b5f612629612623612a8f565b83612b45565b9050919050565b5f5f5f5f61263e8686612b85565b92509250925061264e8282612bda565b82935050505092915050565b6126648383612d3c565b61267861266f6117b0565b5f858585611dcd565b505050565b5f5f5f90507a184f03e93ff9f4daa797ed6e38ed64bf6a1f01000000000000000083106126d9577a184f03e93ff9f4daa797ed6e38ed64bf6a1f01000000000000000083816126cf576126ce61486b565b5b0492506040810190505b6d04ee2d6d415b85acef81000000008310612716576d04ee2d6d415b85acef8100000000838161270c5761270b61486b565b5b0492506020810190505b662386f26fc10000831061274557662386f26fc10000838161273b5761273a61486b565b5b0492506010810190505b6305f5e100831061276e576305f5e10083816127645761276361486b565b5b0492506008810190505b61271083106127935761271083816127895761278861486b565b5b0492506004810190505b606483106127b657606483816127ac576127ab61486b565b5b0492506002810190505b600a83106127c5576001810190505b80915050919050565b60605f8451036127ee5760405180602001604052805f8152509050612956565b5f8261281f57600360028651600461280691906148c5565b6128109190614906565b61281a9190614e00565b612846565b60036002865161282f9190614906565b6128399190614e00565b600461284591906148c5565b5b90505f8167ffffffffffffffff81111561286357612862613744565b5b6040519080825280601f01601f1916602001820160405280156128955781602001600182028036833780820191505090505b509050600185016020820187885189016020810180515f82525b8284101561290a576003840193508351603f8160121c168701518653600186019550603f81600c1c168701518653600186019550603f8160061c168701518653600186019550603f81168701518653600186019550506128af565b808252891561294a5760038c51066001811461292d576002811461294057612948565b603d6001870353603d6002870353612948565b603d60018703535b505b50505050505080925050505b9392505050565b5f5f73ffffffffffffffffffffffffffffffffffffffff168373ffffffffffffffffffffffffffffffffffffffff1614158015612a1457508273ffffffffffffffffffffffffffffffffffffffff168473ffffffffffffffffffffffffffffffffffffffff1614806129d557506129d484846114ef565b5b80612a1357508273ffffffffffffffffffffffffffffffffffffffff166129fb83611777565b73ffffffffffffffffffffffffffffffffffffffff16145b5b90509392505050565b60605f612a2983612e2f565b90505f602067ffffffffffffffff811115612a4757612a46613744565b5b6040519080825280601f01601f191660200182016040528015612a795781602001600182028036833780820191505090505b5090508181528360208201528092505050919050565b5f7f000000000000000000000000000000000000000000000000000000000000000073ffffffffffffffffffffffffffffffffffffffff163073ffffffffffffffffffffffffffffffffffffffff16148015612b0a57507f000000000000000000000000000000000000000000000000000000000000000046145b15612b37577f00000000000000000000000000000000000000000000000000000000000000009050612b42565b612b3f612e7d565b90505b90565b5f6040517f190100000000000000000000000000000000000000000000000000000000000081528360028201528260228201526042812091505092915050565b5f5f5f6041845103612bc5575f5f5f602087015192506040870151915060608701515f1a9050612bb788828585612f12565b955095509550505050612bd3565b5f600285515f1b9250925092505b9250925092565b5f6003811115612bed57612bec614e30565b5b826003811115612c0057612bff614e30565b5b0315612d385760016003811115612c1a57612c19614e30565b5b826003811115612c2d57612c2c614e30565b5b03612c64576040517ff645eedf00000000000000000000000000000000000000000000000000000000815260040160405180910390fd5b60026003811115612c7857612c77614e30565b5b826003811115612c8b57612c8a614e30565b5b03612ccf57805f1c6040517ffce698f7000000000000000000000000000000000000000000000000000000008152600401612cc69190613338565b60405180910390fd5b600380811115612ce257612ce1614e30565b5b826003811115612cf557612cf4614e30565b5b03612d3757806040517fd78bce0c000000000000000000000000000000000000000000000000000000008152600401612d2e9190614e5d565b60405180910390fd5b5b5050565b5f73ffffffffffffffffffffffffffffffffffffffff168273ffffffffffffffffffffffffffffffffffffffff1603612dac575f6040517f64a0ae92000000000000000000000000000000000000000000000000000000008152600401612da391906132a8565b60405180910390fd5b5f612db883835f6117c9565b90505f73ffffffffffffffffffffffffffffffffffffffff168173ffffffffffffffffffffffffffffffffffffffff1614612e2a575f6040517f73c6ac6e000000000000000000000000000000000000000000000000000000008152600401612e2191906132a8565b60405180910390fd5b505050565b5f5f60ff835f1c169050601f811115612e74576040517fb3512b0c00000000000000000000000000000000000000000000000000000000815260040160405180910390fd5b80915050919050565b5f7f8b73c3c69bb8fe3d512ecc4cf759cc79239f7b179b0ffacaa9a75d522b39400f7f00000000000000000000000000000000000000000000000000000000000000007f00000000000000000000000000000000000000000000000000000000000000004630604051602001612ef7959493929190614e76565b60405160208183030381529060405280519060200120905090565b5f5f5f7f7fffffffffffffffffffffffffffffff5d576e7357a4501ddfe92f46681b20a0845f1c1115612f4e575f600385925092509250612fef565b5f6001888888886040515f8152602001604052604051612f719493929190614ee2565b6020604051602081039080840390855afa158015612f91573d5f5f3e3d5ffd5b5050506020604051035190505f73ffffffffffffffffffffffffffffffffffffffff168173ffffffffffffffffffffffffffffffffffffffff1603612fe2575f60015f5f1b93509350935050612fef565b805f5f5f1b935093509350505b9450945094915050565b5f604051905090565b5f5ffd5b5f5ffd5b5f7fffffffff0000000000000000000000000000000000000000000000000000000082169050919050565b61303e8161300a565b8114613048575f5ffd5b50565b5f8135905061305981613035565b92915050565b5f6020828403121561307457613073613002565b5b5f6130818482850161304b565b91505092915050565b5f8115159050919050565b61309e8161308a565b82525050565b5f6020820190506130b75f830184613095565b92915050565b5f819050919050565b6130cf816130bd565b81146130d9575f5ffd5b50565b5f813590506130ea816130c6565b92915050565b5f5ffd5b5f5ffd5b5f5ffd5b5f5f83601f840112613111576131106130f0565b5b8235905067ffffffffffffffff81111561312e5761312d6130f4565b5b60208301915083600182028301111561314a576131496130f8565b5b9250929050565b5f5f5f6040848603121561316857613167613002565b5b5f613175868287016130dc565b935050602084013567ffffffffffffffff81111561319657613195613006565b5b6131a2868287016130fc565b92509250509250925092565b5f81519050919050565b5f82825260208201905092915050565b8281835e5f83830152505050565b5f601f19601f8301169050919050565b5f6131f0826131ae565b6131fa81856131b8565b935061320a8185602086016131c8565b613213816131d6565b840191505092915050565b5f6020820190508181035f83015261323681846131e6565b905092915050565b5f6020828403121561325357613252613002565b5b5f613260848285016130dc565b91505092915050565b5f73ffffffffffffffffffffffffffffffffffffffff82169050919050565b5f61329282613269565b9050919050565b6132a281613288565b82525050565b5f6020820190506132bb5f830184613299565b92915050565b6132ca81613288565b81146132d4575f5ffd5b50565b5f813590506132e5816132c1565b92915050565b5f5f6040838503121561330157613300613002565b5b5f61330e858286016132d7565b925050602061331f858286016130dc565b9150509250929050565b613332816130bd565b82525050565b5f60208201905061334b5f830184613329565b92915050565b5f5f6040838503121561336757613366613002565b5b5f613374858286016130dc565b9250506020613385858286016132d7565b9150509250929050565b5f5f5f606084860312156133a6576133a5613002565b5b5f6133b3868287016132d7565b93505060206133c4868287016132d7565b92505060406133d5868287016130dc565b9150509250925092565b5f602082840312156133f4576133f3613002565b5b5f613401848285016132d7565b91505092915050565b5f7fff0000000000000000000000000000000000000000000000000000000000000082169050919050565b61343e8161340a565b82525050565b5f819050919050565b61345681613444565b82525050565b5f81519050919050565b5f82825260208201905092915050565b5f819050602082019050919050565b61348e816130bd565b82525050565b5f61349f8383613485565b60208301905092915050565b5f602082019050919050565b5f6134c18261345c565b6134cb8185613466565b93506134d683613476565b805f5b838110156135065781516134ed8882613494565b97506134f8836134ab565b9250506001810190506134d9565b5085935050505092915050565b5f60e0820190506135265f83018a613435565b818103602083015261353881896131e6565b9050818103604083015261354c81886131e6565b905061355b6060830187613329565b6135686080830186613299565b61357560a083018561344d565b81810360c083015261358781846134b7565b905098975050505050505050565b5f63ffffffff82169050919050565b6135ad81613595565b81146135b7575f5ffd5b50565b5f813590506135c8816135a4565b92915050565b5f5f83601f8401126135e3576135e26130f0565b5b8235905067ffffffffffffffff811115613600576135ff6130f4565b5b60208301915083600182028301111561361c5761361b6130f8565b5b9250929050565b5f5f5f5f6060858703121561363b5761363a613002565b5b5f613648878288016130dc565b9450506020613659878288016135ba565b935050604085013567ffffffffffffffff81111561367a57613679613006565b5b613686878288016135ce565b925092505092959194509250565b61369d8161308a565b81146136a7575f5ffd5b50565b5f813590506136b881613694565b92915050565b5f5f604083850312156136d4576136d3613002565b5b5f6136e1858286016132d7565b92505060206136f2858286016136aa565b9150509250929050565b61370581613595565b82525050565b5f60608201905061371e5f830186613329565b61372b60208301856136fc565b6137386040830184613299565b949350505050565b5f5ffd5b7f4e487b71000000000000000000000000000000000000000000000000000000005f52604160045260245ffd5b61377a826131d6565b810181811067ffffffffffffffff8211171561379957613798613744565b5b80604052505050565b5f6137ab612ff9565b90506137b78282613771565b919050565b5f67ffffffffffffffff8211156137d6576137d5613744565b5b6137df826131d6565b9050602081019050919050565b828183375f83830152505050565b5f61380c613807846137bc565b6137a2565b90508281526020810184848401111561382857613827613740565b5b6138338482856137ec565b509392505050565b5f82601f83011261384f5761384e6130f0565b5b813561385f8482602086016137fa565b91505092915050565b5f5f5f5f608085870312156138805761387f613002565b5b5f61388d878288016132d7565b945050602061389e878288016132d7565b93505060406138af878288016130dc565b925050606085013567ffffffffffffffff8111156138d0576138cf613006565b5b6138dc8782880161383b565b91505092959194509250565b5f5f604083850312156138fe576138fd613002565b5b5f61390b858286016130dc565b925050602061391c858286016130dc565b9150509250929050565b5f5f6040838503121561393c5761393b613002565b5b5f613949858286016132d7565b925050602061395a858286016132d7565b9150509250929050565b5f82905092915050565b7f4e487b71000000000000000000000000000000000000000000000000000000005f52602260045260245ffd5b5f60028204905060018216806139b257607f821691505b6020821081036139c5576139c461396e565b5b50919050565b5f819050815f5260205f209050919050565b5f6020601f8301049050919050565b5f82821b905092915050565b5f60088302613a277fffffffffffffffffffffffffffffffffffffffffffffffffffffffffffffffff826139ec565b613a3186836139ec565b95508019841693508086168417925050509392505050565b5f819050919050565b5f613a6c613a67613a62846130bd565b613a49565b6130bd565b9050919050565b5f819050919050565b613a8583613a52565b613a99613a9182613a73565b8484546139f8565b825550505050565b5f5f905090565b613ab0613aa1565b613abb818484613a7c565b505050565b5b81811015613ade57613ad35f82613aa8565b600181019050613ac1565b5050565b601f821115613b2357613af4816139cb565b613afd846139dd565b81016020851015613b0c578190505b613b20613b18856139dd565b830182613ac0565b50505b505050565b5f82821c905092915050565b5f613b435f1984600802613b28565b1980831691505092915050565b5f613b5b8383613b34565b9150826002028217905092915050565b613b758383613964565b67ffffffffffffffff811115613b8e57613b8d613744565b5b613b98825461399b565b613ba3828285613ae2565b5f601f831160018114613bd0575f8415613bbe578287013590505b613bc88582613b50565b865550613c2f565b601f198416613bde866139cb565b5f5b82811015613c0557848901358255600182019150602085019450602081019050613be0565b86831015613c225784890135613c1e601f891682613b34565b8355505b6001600288020188555050505b50505050505050565b5f613c4383856131b8565b9350613c508385846137ec565b613c59836131d6565b840190509392505050565b5f6020820190508181035f830152613c7d818486613c38565b90509392505050565b5f606082019050613c995f830186613299565b613ca66020830185613329565b613cb36040830184613299565b949350505050565b7f7a65726f207369676e65720000000000000000000000000000000000000000005f82015250565b5f613cef600b836131b8565b9150613cfa82613cbb565b602082019050919050565b5f6020820190508181035f830152613d1c81613ce3565b9050919050565b7f616c726561647920636c61696d656400000000000000000000000000000000005f82015250565b5f613d57600f836131b8565b9150613d6282613d23565b602082019050919050565b5f6020820190508181035f830152613d8481613d4b565b9050919050565b7f626164207369676e6174757265000000000000000000000000000000000000005f82015250565b5f613dbf600d836131b8565b9150613dca82613d8b565b602082019050919050565b5f6020820190508181035f830152613dec81613db3565b9050919050565b7f6e6f74207375636365737366756c0000000000000000000000000000000000005f82015250565b5f613e27600e836131b8565b9150613e3282613df3565b602082019050919050565b5f6020820190508181035f830152613e5481613e1b565b9050919050565b7f4e487b71000000000000000000000000000000000000000000000000000000005f52601160045260245ffd5b5f613e92826130bd565b91507fffffffffffffffffffffffffffffffffffffffffffffffffffffffffffffffff8203613ec457613ec3613e5b565b5b600182019050919050565b5f602082019050613ee25f8301846136fc565b92915050565b7f696e76616c6964207468726573686f6c640000000000000000000000000000005f82015250565b5f613f1c6011836131b8565b9150613f2782613ee8565b602082019050919050565b5f6020820190508181035f830152613f4981613f10565b9050919050565b7f6e6f6e6578697374656e740000000000000000000000000000000000000000005f82015250565b5f613f84600b836131b8565b9150613f8f82613f50565b602082019050919050565b5f6020820190508181035f830152613fb181613f78565b9050919050565b7f416368696576656d656e74202300000000000000000000000000000000000000815250565b5f81905092915050565b5f613ff2826131ae565b613ffc8185613fde565b935061400c8185602086016131c8565b80840191505092915050565b5f61402282613fb8565b600d820191506140328284613fe8565b915081905092915050565b7f202d200000000000000000000000000000000000000000000000000000000000815250565b7f7300000000000000000000000000000000000000000000000000000000000000815250565b5f6140948285613fe8565b915061409f8261403d565b6003820191506140af8284613fe8565b91506140ba82614063565b6001820191508190509392505050565b7f506c617965722000000000000000000000000000000000000000000000000000815250565b7f2061636869657665642000000000000000000000000000000000000000000000815250565b7f20696e2000000000000000000000000000000000000000000000000000000000815250565b7f207365636f6e64732e0000000000000000000000000000000000000000000000815250565b5f61416c826140ca565b60078201915061417c8286613fe8565b9150614187826140f0565b600a820191506141978285613fe8565b91506141a282614116565b6004820191506141b28284613fe8565b91506141bd8261413c565b600982019150819050949350505050565b7f646174613a696d6167652f7376672b786d6c3b6261736536342c000000000000815250565b5f6141fe826141ce565b601a8201915061420e8284613fe8565b915081905092915050565b7f5b00000000000000000000000000000000000000000000000000000000000000815250565b7f7b2274726169745f74797065223a22416368696576656d656e74204944222c225f8201527f76616c7565223a22000000000000000000000000000000000000000000000000602082015250565b5f614299602883613fde565b91506142a48261423f565b602882019050919050565b7f227d2c0000000000000000000000000000000000000000000000000000000000815250565b7f7b2274726169745f74797065223a2254696d65205365636f6e6473222c2276615f8201527f6c7565223a220000000000000000000000000000000000000000000000000000602082015250565b5f61432f602683613fde565b915061433a826142d5565b602682019050919050565b7f7b2274726169745f74797065223a22506c61796572222c2276616c7565223a225f8201527f3078000000000000000000000000000000000000000000000000000000000000602082015250565b5f61439f602283613fde565b91506143aa82614345565b602282019050919050565b7f7b2274726169745f74797065223a225468726573686f6c64222c2276616c75655f8201527f223a220000000000000000000000000000000000000000000000000000000000602082015250565b5f61440f602383613fde565b915061441a826143b5565b602382019050919050565b7f227d000000000000000000000000000000000000000000000000000000000000815250565b7f5d00000000000000000000000000000000000000000000000000000000000000815250565b5f61447b82614219565b60018201915061448a8261428d565b91506144968287613fe8565b91506144a1826142af565b6003820191506144b082614323565b91506144bc8286613fe8565b91506144c7826142af565b6003820191506144d682614393565b91506144e28285613fe8565b91506144ed826142af565b6003820191506144fc82614403565b91506145088284613fe8565b915061451382614425565b6002820191506145228261444b565b60018201915081905095945050505050565b7f7b00000000000000000000000000000000000000000000000000000000000000815250565b7f226e616d65223a22000000000000000000000000000000000000000000000000815250565b7f222c000000000000000000000000000000000000000000000000000000000000815250565b7f226465736372697074696f6e223a220000000000000000000000000000000000815250565b7f22696d616765223a220000000000000000000000000000000000000000000000815250565b7f2261747472696275746573223a00000000000000000000000000000000000000815250565b7f7d00000000000000000000000000000000000000000000000000000000000000815250565b5f61464882614534565b6001820191506146578261455a565b6008820191506146678287613fe8565b915061467282614580565b600282019150614681826145a6565b600f820191506146918286613fe8565b915061469c82614580565b6002820191506146ab826145cc565b6009820191506146bb8285613fe8565b91506146c682614580565b6002820191506146d5826145f2565b600d820191506146e58284613fe8565b91506146f082614618565b60018201915081905095945050505050565b7f646174613a6170706c69636174696f6e2f6a736f6e3b6261736536342c000000815250565b5f61473282614702565b601d820191506147428284613fe8565b915081905092915050565b5f6080820190506147605f83018761344d565b61476d6020830186613299565b61477a6040830185613329565b61478760608301846136fc565b95945050505050565b5f81519050919050565b5f82825260208201905092915050565b5f6147b482614790565b6147be818561479a565b93506147ce8185602086016131c8565b6147d7816131d6565b840191505092915050565b5f6080820190506147f55f830187613299565b6148026020830186613299565b61480f6040830185613329565b818103606083015261482181846147aa565b905095945050505050565b5f8151905061483a81613035565b92915050565b5f6020828403121561485557614854613002565b5b5f6148628482850161482c565b91505092915050565b7f4e487b71000000000000000000000000000000000000000000000000000000005f52601260045260245ffd5b7f4e487b71000000000000000000000000000000000000000000000000000000005f52603260045260245ffd5b5f6148cf826130bd565b91506148da836130bd565b92508282026148e8816130bd565b915082820484148315176148ff576148fe613e5b565b5b5092915050565b5f614910826130bd565b915061491b836130bd565b925082820190508082111561493357614932613e5b565b5b92915050565b7f3c73766720786d6c6e733d22687474703a2f2f7777772e77332e6f72672f32305f8201527f30302f737667222077696474683d223130323422206865696768743d2231303260208201527f34222076696577426f783d2230203020313032342031303234223e0000000000604082015250565b5f6149b9605b83613fde565b91506149c482614939565b605b82019050919050565b7f3c646566733e3c6c696e6561724772616469656e742069643d2267222078313d5f8201527f2230222079313d2230222078323d2231222079323d2231223e00000000000000602082015250565b5f614a29603983613fde565b9150614a34826149cf565b603982019050919050565b7f3c73746f70206f66667365743d223025222073746f702d636f6c6f723d2223325f8201527f6232643432222f3e3c73746f70206f66667365743d2231303025222073746f7060208201527f2d636f6c6f723d2223316239393862222f3e0000000000000000000000000000604082015250565b5f614abf605283613fde565b9150614aca82614a3f565b605282019050919050565b7f3c2f6c696e6561724772616469656e743e3c2f646566733e0000000000000000815250565b7f3c726563742077696474683d223130323422206865696768743d2231303234225f8201527f2066696c6c3d2275726c28236729222f3e000000000000000000000000000000602082015250565b5f614b55603183613fde565b9150614b6082614afb565b603182019050919050565b7f3c6720666f6e742d66616d696c793d226d6f6e6f7370616365222066696c6c3d5f8201527f22236666666666662220746578742d616e63686f723d226d6964646c65223e00602082015250565b5f614bc5603f83613fde565b9150614bd082614b6b565b603f82019050919050565b7f3c7465787420783d223531322220793d223336302220666f6e742d73697a653d5f8201527f22353622206f7061636974793d22302e39223e00000000000000000000000000602082015250565b5f614c35603383613fde565b9150614c4082614bdb565b603382019050919050565b7f3c2f746578743e00000000000000000000000000000000000000000000000000815250565b7f3c7465787420783d223531322220793d223536302220666f6e742d73697a653d5f8201527f223132302220666f6e742d7765696768743d22626f6c64223e00000000000000602082015250565b5f614ccb603983613fde565b9150614cd682614c71565b603982019050919050565b7f733c2f746578743e000000000000000000000000000000000000000000000000815250565b7f3c2f673e3c2f7376673e00000000000000000000000000000000000000000000815250565b5f614d37826149ad565b9150614d4282614a1d565b9150614d4d82614ab3565b9150614d5882614ad5565b601882019150614d6782614b49565b9150614d7282614bb9565b9150614d7d82614c29565b9150614d898285613fe8565b9150614d9482614c4b565b600782019150614da382614cbf565b9150614daf8284613fe8565b9150614dba82614ce1565b600882019150614dc982614d07565b600a820191508190509392505050565b5f604082019050614dec5f830185613299565b614df96020830184613329565b9392505050565b5f614e0a826130bd565b9150614e15836130bd565b925082614e2557614e2461486b565b5b828204905092915050565b7f4e487b71000000000000000000000000000000000000000000000000000000005f52602160045260245ffd5b5f602082019050614e705f83018461344d565b92915050565b5f60a082019050614e895f83018861344d565b614e96602083018761344d565b614ea3604083018661344d565b614eb06060830185613329565b614ebd6080830184613299565b9695505050505050565b5f60ff82169050919050565b614edc81614ec7565b82525050565b5f608082019050614ef55f83018761344d565b614f026020830186614ed3565b614f0f604083018561344d565b614f1c606083018461344d565b9594505050505056fe4142434445464748494a4b4c4d4e4f505152535455565758595a6162636465666768696a6b6c6d6e6f707172737475767778797a303132333435363738392b2fa2646970667358221220aab2656afa3e6cdd4f5ce9bfae372b90bb88889628612c0409ad658e2f30407464736f6c634300081e0033","linkReferences":{}},"methodIdentifiers":{"achievementName(uint256)":"21726ae5","achievementThreshold(uint256)":"111b2545","approve(address,uint256)":"095ea7b3","balanceOf(address)":"70a08231","claimed(uint256,address)":"120aa877","defaultThreshold()":"53f10a4b","eip712Domain()":"84b0196e","getApproved(uint256)":"081812fc","isApprovedForAll(address,address)":"e985e9c5","mintMyAchievement(uint256,uint32,bytes)":"8f15268a","name()":"06fdde03","owner()":"8da5cb5b","ownerOf(uint256)":"6352211e","renounceOwnership()":"715018a6","safeTransferFrom(address,address,uint256)":"42842e0e","safeTransferFrom(address,address,uint256,bytes)":"b88d4fde","setAchievementName(uint256,string)":"05ff1ef4","setAchievementThreshold(uint256,uint256)":"cdb43785","setApprovalForAll(address,bool)":"a22cb465","setDefaultThreshold(uint256)":"c5246bf5","setSigner(address)":"6c19e783","signer()":"238ac933","supportsInterface(bytes4)":"01ffc9a7","symbol()":"95d89b41","tokenData(uint256)":"b4b5b48f","tokenURI(uint256)":"c87b56dd","transferFrom(address,address,uint256)":"23b872dd","transferOwnership(address)":"f2fde38b"},"id":3}