{"abi":[{"type":"constructor","inputs":[{"name":"_feeBps","type":"uint16","internalType":"uint16"},{"name":"_feeRecipient","type":"address","internalType":"address"}],"stateMutability":"nonpayable"},{"type":"function","name":"buy","inputs":[{"name":"listingId","type":"uint256","internalType":"uint256"}],"outputs":[],"stateMutability":"payable"},{"type":"function","name":"cancel","inputs":[{"name":"listingId","type":"uint256","internalType":"uint256"}],"outputs":[],"stateMutability":"nonpayable"},{"type":"function","name":"feeBps","inputs":[],"outputs":[{"name":"","type":"uint16","internalType":"uint16"}],"stateMutability":"view"},{"type":"function","name":"feeRecipient","inputs":[],"outputs":[{"name":"","type":"address","internalType":"address"}],"stateMutability":"view"},{"type":"function","name":"list1155","inputs":[{"name":"collection","type":"address","internalType":"address"},{"name":"tokenId","type":"uint256","internalType":"uint256"},{"name":"quantity","type":"uint256","internalType":"uint256"},{"name":"priceWei","type":"uint256","internalType":"uint256"}],"outputs":[],"stateMutability":"nonpayable"},{"type":"function","name":"list721","inputs":[{"name":"collection","type":"address","internalType":"address"},{"name":"tokenId","type":"uint256","internalType":"uint256"},{"name":"priceWei","type":"uint256","internalType":"uint256"}],"outputs":[],"stateMutability":"nonpayable"},{"type":"function","name":"listings","inputs":[{"name":"","type":"uint256","internalType":"uint256"}],"outputs":[{"name":"seller","type":"address","internalType":"address"},{"name":"collection","type":"address","internalType":"address"},{"name":"tokenId","type":"uint256","internalType":"uint256"},{"name":"quantity","type":"uint256","internalType":"uint256"},{"name":"priceWei","type":"uint256","internalType":"uint256"},{"name":"sold","type":"bool","internalType":"bool"},{"name":"is1155","type":"bool","internalType":"bool"}],"stateMutability":"view"},{"type":"function","name":"nextListingId","inputs":[],"outputs":[{"name":"","type":"uint256","internalType":"uint256"}],"stateMutability":"view"},{"type":"function","name":"owner","inputs":[],"outputs":[{"name":"","type":"address","internalType":"address"}],"stateMutability":"view"},{"type":"function","name":"renounceOwnership","inputs":[],"outputs":[],"stateMutability":"nonpayable"},{"type":"function","name":"setFee","inputs":[{"name":"_feeBps","type":"uint16","internalType":"uint16"}],"outputs":[],"stateMutability":"nonpayable"},{"type":"function","name":"setFeeRecipient","inputs":[{"name":"_feeRecipient","type":"address","internalType":"address"}],"outputs":[],"stateMutability":"nonpayable"},{"type":"function","name":"transferOwnership","inputs":[{"name":"newOwner","type":"address","internalType":"address"}],"outputs":[],"stateMutability":"nonpayable"},{"type":"function","name":"updatePrice","inputs":[{"name":"listingId","type":"uint256","internalType":"uint256"},{"name":"newPriceWei","type":"uint256","internalType":"uint256"}],"outputs":[],"stateMutability":"nonpayable"},{"type":"event","name":"Bought","inputs":[{"name":"listingId","type":"uint256","indexed":true,"internalType":"uint256"},{"name":"buyer","type":"address","indexed":true,"internalType":"address"},{"name":"quantity","type":"uint256","indexed":false,"internalType":"uint256"},{"name":"totalPrice","type":"uint256","indexed":false,"internalType":"uint256"}],"anonymous":false},{"type":"event","name":"Cancelled","inputs":[{"name":"listingId","type":"uint256","indexed":true,"internalType":"uint256"}],"anonymous":false},{"type":"event","name":"Listed","inputs":[{"name":"listingId","type":"uint256","indexed":true,"internalType":"uint256"},{"name":"seller","type":"address","indexed":true,"internalType":"address"},{"name":"collection","type":"address","indexed":true,"internalType":"address"},{"name":"tokenId","type":"uint256","indexed":false,"internalType":"uint256"},{"name":"quantity","type":"uint256","indexed":false,"internalType":"uint256"},{"name":"priceWei","type":"uint256","indexed":false,"internalType":"uint256"}],"anonymous":false},{"type":"event","name":"OwnershipTransferred","inputs":[{"name":"previousOwner","type":"address","indexed":true,"internalType":"address"},{"name":"newOwner","type":"address","indexed":true,"internalType":"address"}],"anonymous":false},{"type":"event","name":"PriceUpdated","inputs":[{"name":"listingId","type":"uint256","indexed":true,"internalType":"uint256"},{"name":"newPrice","type":"uint256","indexed":false,"internalType":"uint256"}],"anonymous":false},{"type":"error","name":"AlreadySold","inputs":[]},{"type":"error","name":"InvalidPayment","inputs":[]},{"type":"error","name":"InvalidPrice","inputs":[]},{"type":"error","name":"InvalidQuantity","inputs":[]},{"type":"error","name":"NotListed","inputs":[]},{"type":"error","name":"OwnableInvalidOwner","inputs":[{"name":"owner","type":"address","internalType":"address"}]},{"type":"error","name":"OwnableUnauthorizedAccount","inputs":[{"name":"account","type":"address","internalType":"address"}]},{"type":"error","name":"ReentrancyGuardReentrantCall","inputs":[]},{"type":"error","name":"TransferFailed","inputs":[]},{"type":"error","name":"Unauthorized","inputs":[]}],"bytecode":{"object":"0x608060405234801561000f575f5ffd5b5060405161263738038061263783398181016040528101906100319190610272565b335f73ffffffffffffffffffffffffffffffffffffffff168173ffffffffffffffffffffffffffffffffffffffff16036100a2575f6040517f1e4fbdf700000000000000000000000000000000000000000000000000000000815260040161009991906102bf565b60405180910390fd5b6100b18161011c60201b60201c565b50600180819055508160025f6101000a81548161ffff021916908361ffff160217905550806002806101000a81548173ffffffffffffffffffffffffffffffffffffffff021916908373ffffffffffffffffffffffffffffffffffffffff16021790555050506102d8565b5f5f5f9054906101000a900473ffffffffffffffffffffffffffffffffffffffff169050815f5f6101000a81548173ffffffffffffffffffffffffffffffffffffffff021916908373ffffffffffffffffffffffffffffffffffffffff1602179055508173ffffffffffffffffffffffffffffffffffffffff168173ffffffffffffffffffffffffffffffffffffffff167f8be0079c531659141344cd1fd0a4f28419497f9722a3daafe3b4186f6b6457e060405160405180910390a35050565b5f5ffd5b5f61ffff82169050919050565b6101f7816101e1565b8114610201575f5ffd5b50565b5f81519050610212816101ee565b92915050565b5f73ffffffffffffffffffffffffffffffffffffffff82169050919050565b5f61024182610218565b9050919050565b61025181610237565b811461025b575f5ffd5b50565b5f8151905061026c81610248565b92915050565b5f5f60408385031215610288576102876101dd565b5b5f61029585828601610204565b92505060206102a68582860161025e565b9150509250929050565b6102b981610237565b82525050565b5f6020820190506102d25f8301846102b0565b92915050565b612352806102e55f395ff3fe6080604052600436106100dc575f3560e01c80638e0055531161007e578063d96a094a11610058578063d96a094a14610266578063de74e57b14610282578063e74b981b146102c4578063f2fde38b146102ec576100dc565b80638e005553146101ec578063a2b994ef14610214578063aaccf1ec1461023c576100dc565b8063715018a6116100ba578063715018a61461015c57806382367b2d146101725780638c4bd9131461019a5780638da5cb5b146101c2576100dc565b806324a9d853146100e057806340e58ee51461010a5780634690484014610132575b5f5ffd5b3480156100eb575f5ffd5b506100f4610314565b6040516101019190611b38565b60405180910390f35b348015610115575f5ffd5b50610130600480360381019061012b9190611b88565b610327565b005b34801561013d575f5ffd5b5061014661051f565b6040516101539190611bf2565b60405180910390f35b348015610167575f5ffd5b50610170610543565b005b34801561017d575f5ffd5b5061019860048036038101906101939190611c0b565b610556565b005b3480156101a5575f5ffd5b506101c060048036038101906101bb9190611c73565b61073e565b005b3480156101cd575f5ffd5b506101d6610afd565b6040516101e39190611bf2565b60405180910390f35b3480156101f7575f5ffd5b50610212600480360381019061020d9190611d01565b610b24565b005b34801561021f575f5ffd5b5061023a60048036038101906102359190611d2c565b610b4b565b005b348015610247575f5ffd5b50610250610fac565b60405161025d9190611d8b565b60405180910390f35b610280600480360381019061027b9190611b88565b610fb2565b005b34801561028d575f5ffd5b506102a860048036038101906102a39190611b88565b611711565b6040516102bb9796959493929190611dbe565b60405180910390f35b3480156102cf575f5ffd5b506102ea60048036038101906102e59190611e2b565b6117a6565b005b3480156102f7575f5ffd5b50610312600480360381019061030d9190611e2b565b6117f1565b005b60025f9054906101000a900461ffff1681565b5f60045f8381526020019081526020015f2090505f73ffffffffffffffffffffffffffffffffffffffff16815f015f9054906101000a900473ffffffffffffffffffffffffffffffffffffffff1673ffffffffffffffffffffffffffffffffffffffff16036103c2576040517f665c1c5700000000000000000000000000000000000000000000000000000000815260040160405180910390fd5b806005015f9054906101000a900460ff161561040a576040517fda17dbf800000000000000000000000000000000000000000000000000000000815260040160405180910390fd5b3373ffffffffffffffffffffffffffffffffffffffff16815f015f9054906101000a900473ffffffffffffffffffffffffffffffffffffffff1673ffffffffffffffffffffffffffffffffffffffff161415801561049b575061046b610afd565b73ffffffffffffffffffffffffffffffffffffffff163373ffffffffffffffffffffffffffffffffffffffff1614155b156104d2576040517f82b4290000000000000000000000000000000000000000000000000000000000815260040160405180910390fd5b6001816005015f6101000a81548160ff021916908315150217905550817fc41d93b8bfbf9fd7cf5bfe271fd649ab6a6fec0ea101c23b82a2a28eca2533a960405160405180910390a25050565b60028054906101000a900473ffffffffffffffffffffffffffffffffffffffff1681565b61054b611875565b6105545f6118fc565b565b5f810361058e576040517ebfc92100000000000000000000000000000000000000000000000000000000815260040160405180910390fd5b5f60045f8481526020019081526020015f2090505f73ffffffffffffffffffffffffffffffffffffffff16815f015f9054906101000a900473ffffffffffffffffffffffffffffffffffffffff1673ffffffffffffffffffffffffffffffffffffffff1603610629576040517f665c1c5700000000000000000000000000000000000000000000000000000000815260040160405180910390fd5b806005015f9054906101000a900460ff1615610671576040517fda17dbf800000000000000000000000000000000000000000000000000000000815260040160405180910390fd5b3373ffffffffffffffffffffffffffffffffffffffff16815f015f9054906101000a900473ffffffffffffffffffffffffffffffffffffffff1673ffffffffffffffffffffffffffffffffffffffff16146106f8576040517f82b4290000000000000000000000000000000000000000000000000000000000815260040160405180910390fd5b818160040181905550827f945c1c4e99aa89f648fbfe3df471b916f719e16d960fcec0737d4d56bd696838836040516107319190611d8b565b60405180910390a2505050565b5f8103610776576040517ebfc92100000000000000000000000000000000000000000000000000000000815260040160405180910390fd5b5f82036107af576040517f524f409b00000000000000000000000000000000000000000000000000000000815260040160405180910390fd5b5f849050828173ffffffffffffffffffffffffffffffffffffffff1662fdd58e33876040518363ffffffff1660e01b81526004016107ee929190611e56565b602060405180830381865afa158015610809573d5f5f3e3d5ffd5b505050506040513d601f19601f8201168201806040525081019061082d9190611e91565b1015610865576040517f82b4290000000000000000000000000000000000000000000000000000000000815260040160405180910390fd5b8073ffffffffffffffffffffffffffffffffffffffff1663e985e9c533306040518363ffffffff1660e01b81526004016108a0929190611ebc565b602060405180830381865afa1580156108bb573d5f5f3e3d5ffd5b505050506040513d601f19601f820116820180604052508101906108df9190611f0d565b610915576040517f82b4290000000000000000000000000000000000000000000000000000000000815260040160405180910390fd5b5f60035f815461092490611f65565b91905081905590506040518060e001604052803373ffffffffffffffffffffffffffffffffffffffff1681526020018773ffffffffffffffffffffffffffffffffffffffff1681526020018681526020018581526020018481526020015f151581526020016001151581525060045f8381526020019081526020015f205f820151815f015f6101000a81548173ffffffffffffffffffffffffffffffffffffffff021916908373ffffffffffffffffffffffffffffffffffffffff1602179055506020820151816001015f6101000a81548173ffffffffffffffffffffffffffffffffffffffff021916908373ffffffffffffffffffffffffffffffffffffffff16021790555060408201518160020155606082015181600301556080820151816004015560a0820151816005015f6101000a81548160ff02191690831515021790555060c08201518160050160016101000a81548160ff0219169083151502179055509050508573ffffffffffffffffffffffffffffffffffffffff163373ffffffffffffffffffffffffffffffffffffffff16827f1d2286580411f12056775bf9e0fd10101148b09a6fca67c9f426fb113a28d1f8888888604051610aed93929190611fac565b60405180910390a4505050505050565b5f5f5f9054906101000a900473ffffffffffffffffffffffffffffffffffffffff16905090565b610b2c611875565b8060025f6101000a81548161ffff021916908361ffff16021790555050565b5f8103610b83576040517ebfc92100000000000000000000000000000000000000000000000000000000815260040160405180910390fd5b5f8390503373ffffffffffffffffffffffffffffffffffffffff168173ffffffffffffffffffffffffffffffffffffffff16636352211e856040518263ffffffff1660e01b8152600401610bd79190611d8b565b602060405180830381865afa158015610bf2573d5f5f3e3d5ffd5b505050506040513d601f19601f82011682018060405250810190610c169190611ff5565b73ffffffffffffffffffffffffffffffffffffffff1614610c63576040517f82b4290000000000000000000000000000000000000000000000000000000000815260040160405180910390fd5b3073ffffffffffffffffffffffffffffffffffffffff168173ffffffffffffffffffffffffffffffffffffffff1663081812fc856040518263ffffffff1660e01b8152600401610cb39190611d8b565b602060405180830381865afa158015610cce573d5f5f3e3d5ffd5b505050506040513d601f19601f82011682018060405250810190610cf29190611ff5565b73ffffffffffffffffffffffffffffffffffffffff1614158015610d8d57508073ffffffffffffffffffffffffffffffffffffffff1663e985e9c533306040518363ffffffff1660e01b8152600401610d4c929190611ebc565b602060405180830381865afa158015610d67573d5f5f3e3d5ffd5b505050506040513d601f19601f82011682018060405250810190610d8b9190611f0d565b155b15610dc4576040517f82b4290000000000000000000000000000000000000000000000000000000000815260040160405180910390fd5b5f60035f8154610dd390611f65565b91905081905590506040518060e001604052803373ffffffffffffffffffffffffffffffffffffffff1681526020018673ffffffffffffffffffffffffffffffffffffffff168152602001858152602001600181526020018481526020015f151581526020015f151581525060045f8381526020019081526020015f205f820151815f015f6101000a81548173ffffffffffffffffffffffffffffffffffffffff021916908373ffffffffffffffffffffffffffffffffffffffff1602179055506020820151816001015f6101000a81548173ffffffffffffffffffffffffffffffffffffffff021916908373ffffffffffffffffffffffffffffffffffffffff16021790555060408201518160020155606082015181600301556080820151816004015560a0820151816005015f6101000a81548160ff02191690831515021790555060c08201518160050160016101000a81548160ff0219169083151502179055509050508473ffffffffffffffffffffffffffffffffffffffff163373ffffffffffffffffffffffffffffffffffffffff16827f1d2286580411f12056775bf9e0fd10101148b09a6fca67c9f426fb113a28d1f887600188604051610f9d93929190612062565b60405180910390a45050505050565b60035481565b610fba6119bd565b5f60045f8381526020019081526020015f2090505f73ffffffffffffffffffffffffffffffffffffffff16815f015f9054906101000a900473ffffffffffffffffffffffffffffffffffffffff1673ffffffffffffffffffffffffffffffffffffffff1603611055576040517f665c1c5700000000000000000000000000000000000000000000000000000000815260040160405180910390fd5b806005015f9054906101000a900460ff161561109d576040517fda17dbf800000000000000000000000000000000000000000000000000000000815260040160405180910390fd5b806004015434146110da576040517f3c6b4b2800000000000000000000000000000000000000000000000000000000815260040160405180910390fd5b6001816005015f6101000a81548160ff0219169083151502179055505f61271061ffff1660025f9054906101000a900461ffff1661ffff1683600401546111219190612097565b61112b9190612105565b90505f5f611182632a55205a60e01b856001015f9054906101000a900473ffffffffffffffffffffffffffffffffffffffff1673ffffffffffffffffffffffffffffffffffffffff16611a0390919063ffffffff16565b1561123457836001015f9054906101000a900473ffffffffffffffffffffffffffffffffffffffff1673ffffffffffffffffffffffffffffffffffffffff16632a55205a856002015486600401546040518363ffffffff1660e01b81526004016111ed929190612135565b6040805180830381865afa158015611207573d5f5f3e3d5ffd5b505050506040513d601f19601f8201168201806040525081019061122b919061215c565b80935081925050505b5f82848660040154611246919061219a565b611250919061219a565b90508460050160019054906101000a900460ff161561132757846001015f9054906101000a900473ffffffffffffffffffffffffffffffffffffffff1673ffffffffffffffffffffffffffffffffffffffff1663f242432a865f015f9054906101000a900473ffffffffffffffffffffffffffffffffffffffff1633886002015489600301546040518563ffffffff1660e01b81526004016112f59493929190612200565b5f604051808303815f87803b15801561130c575f5ffd5b505af115801561131e573d5f5f3e3d5ffd5b505050506113db565b846001015f9054906101000a900473ffffffffffffffffffffffffffffffffffffffff1673ffffffffffffffffffffffffffffffffffffffff166342842e0e865f015f9054906101000a900473ffffffffffffffffffffffffffffffffffffffff163388600201546040518463ffffffff1660e01b81526004016113ad93929190612256565b5f604051808303815f87803b1580156113c4575f5ffd5b505af11580156113d6573d5f5f3e3d5ffd5b505050505b5f8411801561143657505f73ffffffffffffffffffffffffffffffffffffffff1660028054906101000a900473ffffffffffffffffffffffffffffffffffffffff1673ffffffffffffffffffffffffffffffffffffffff1614155b156114fc575f60028054906101000a900473ffffffffffffffffffffffffffffffffffffffff1673ffffffffffffffffffffffffffffffffffffffff1685604051611480906122b5565b5f6040518083038185875af1925050503d805f81146114ba576040519150601f19603f3d011682016040523d82523d5f602084013e6114bf565b606091505b50509050806114fa576040517f90b8ec1800000000000000000000000000000000000000000000000000000000815260040160405180910390fd5b505b5f8311801561153757505f73ffffffffffffffffffffffffffffffffffffffff168273ffffffffffffffffffffffffffffffffffffffff1614155b156115dd575f8273ffffffffffffffffffffffffffffffffffffffff1684604051611561906122b5565b5f6040518083038185875af1925050503d805f811461159b576040519150601f19603f3d011682016040523d82523d5f602084013e6115a0565b606091505b50509050806115db576040517f90b8ec1800000000000000000000000000000000000000000000000000000000815260040160405180910390fd5b505b5f8111156116a8575f855f015f9054906101000a900473ffffffffffffffffffffffffffffffffffffffff1673ffffffffffffffffffffffffffffffffffffffff168260405161162c906122b5565b5f6040518083038185875af1925050503d805f8114611666576040519150601f19603f3d011682016040523d82523d5f602084013e61166b565b606091505b50509050806116a6576040517f90b8ec1800000000000000000000000000000000000000000000000000000000815260040160405180910390fd5b505b3373ffffffffffffffffffffffffffffffffffffffff16867ffacd5cf4a59fb843cae84344ea28fde6a2663600d66798f530d16925c0da0073876003015488600401546040516116f9929190612135565b60405180910390a3505050505061170e611a27565b50565b6004602052805f5260405f205f91509050805f015f9054906101000a900473ffffffffffffffffffffffffffffffffffffffff1690806001015f9054906101000a900473ffffffffffffffffffffffffffffffffffffffff1690806002015490806003015490806004015490806005015f9054906101000a900460ff16908060050160019054906101000a900460ff16905087565b6117ae611875565b806002806101000a81548173ffffffffffffffffffffffffffffffffffffffff021916908373ffffffffffffffffffffffffffffffffffffffff16021790555050565b6117f9611875565b5f73ffffffffffffffffffffffffffffffffffffffff168173ffffffffffffffffffffffffffffffffffffffff1603611869575f6040517f1e4fbdf70000000000000000000000000000000000000000000000000000000081526004016118609190611bf2565b60405180910390fd5b611872816118fc565b50565b61187d611a30565b73ffffffffffffffffffffffffffffffffffffffff1661189b610afd565b73ffffffffffffffffffffffffffffffffffffffff16146118fa576118be611a30565b6040517f118cdaa70000000000000000000000000000000000000000000000000000000081526004016118f19190611bf2565b60405180910390fd5b565b5f5f5f9054906101000a900473ffffffffffffffffffffffffffffffffffffffff169050815f5f6101000a81548173ffffffffffffffffffffffffffffffffffffffff021916908373ffffffffffffffffffffffffffffffffffffffff1602179055508173ffffffffffffffffffffffffffffffffffffffff168173ffffffffffffffffffffffffffffffffffffffff167f8be0079c531659141344cd1fd0a4f28419497f9722a3daafe3b4186f6b6457e060405160405180910390a35050565b6002600154036119f9576040517f3ee5aeb500000000000000000000000000000000000000000000000000000000815260040160405180910390fd5b6002600181905550565b5f611a0d83611a37565b8015611a1f5750611a1e8383611a83565b5b905092915050565b60018081905550565b5f33905090565b5f611a62827f01ffc9a700000000000000000000000000000000000000000000000000000000611a83565b8015611a7c5750611a7a8263ffffffff60e01b611a83565b155b9050919050565b5f5f82604051602401611a969190612303565b6040516020818303038152906040526301ffc9a760e01b6020820180517bffffffffffffffffffffffffffffffffffffffffffffffffffffffff838183161783525050505090505f5f5f60205f8551602087018a617530fa92503d91505f519050828015611b05575060208210155b8015611b1057505f81115b94505050505092915050565b5f61ffff82169050919050565b611b3281611b1c565b82525050565b5f602082019050611b4b5f830184611b29565b92915050565b5f5ffd5b5f819050919050565b611b6781611b55565b8114611b71575f5ffd5b50565b5f81359050611b8281611b5e565b92915050565b5f60208284031215611b9d57611b9c611b51565b5b5f611baa84828501611b74565b91505092915050565b5f73ffffffffffffffffffffffffffffffffffffffff82169050919050565b5f611bdc82611bb3565b9050919050565b611bec81611bd2565b82525050565b5f602082019050611c055f830184611be3565b92915050565b5f5f60408385031215611c2157611c20611b51565b5b5f611c2e85828601611b74565b9250506020611c3f85828601611b74565b9150509250929050565b611c5281611bd2565b8114611c5c575f5ffd5b50565b5f81359050611c6d81611c49565b92915050565b5f5f5f5f60808587031215611c8b57611c8a611b51565b5b5f611c9887828801611c5f565b9450506020611ca987828801611b74565b9350506040611cba87828801611b74565b9250506060611ccb87828801611b74565b91505092959194509250565b611ce081611b1c565b8114611cea575f5ffd5b50565b5f81359050611cfb81611cd7565b92915050565b5f60208284031215611d1657611d15611b51565b5b5f611d2384828501611ced565b91505092915050565b5f5f5f60608486031215611d4357611d42611b51565b5b5f611d5086828701611c5f565b9350506020611d6186828701611b74565b9250506040611d7286828701611b74565b9150509250925092565b611d8581611b55565b82525050565b5f602082019050611d9e5f830184611d7c565b92915050565b5f8115159050919050565b611db881611da4565b82525050565b5f60e082019050611dd15f83018a611be3565b611dde6020830189611be3565b611deb6040830188611d7c565b611df86060830187611d7c565b611e056080830186611d7c565b611e1260a0830185611daf565b611e1f60c0830184611daf565b98975050505050505050565b5f60208284031215611e4057611e3f611b51565b5b5f611e4d84828501611c5f565b91505092915050565b5f604082019050611e695f830185611be3565b611e766020830184611d7c565b9392505050565b5f81519050611e8b81611b5e565b92915050565b5f60208284031215611ea657611ea5611b51565b5b5f611eb384828501611e7d565b91505092915050565b5f604082019050611ecf5f830185611be3565b611edc6020830184611be3565b9392505050565b611eec81611da4565b8114611ef6575f5ffd5b50565b5f81519050611f0781611ee3565b92915050565b5f60208284031215611f2257611f21611b51565b5b5f611f2f84828501611ef9565b91505092915050565b7f4e487b71000000000000000000000000000000000000000000000000000000005f52601160045260245ffd5b5f611f6f82611b55565b91507fffffffffffffffffffffffffffffffffffffffffffffffffffffffffffffffff8203611fa157611fa0611f38565b5b600182019050919050565b5f606082019050611fbf5f830186611d7c565b611fcc6020830185611d7c565b611fd96040830184611d7c565b949350505050565b5f81519050611fef81611c49565b92915050565b5f6020828403121561200a57612009611b51565b5b5f61201784828501611fe1565b91505092915050565b5f819050919050565b5f819050919050565b5f61204c61204761204284612020565b612029565b611b55565b9050919050565b61205c81612032565b82525050565b5f6060820190506120755f830186611d7c565b6120826020830185612053565b61208f6040830184611d7c565b949350505050565b5f6120a182611b55565b91506120ac83611b55565b92508282026120ba81611b55565b915082820484148315176120d1576120d0611f38565b5b5092915050565b7f4e487b71000000000000000000000000000000000000000000000000000000005f52601260045260245ffd5b5f61210f82611b55565b915061211a83611b55565b92508261212a576121296120d8565b5b828204905092915050565b5f6040820190506121485f830185611d7c565b6121556020830184611d7c565b9392505050565b5f5f6040838503121561217257612171611b51565b5b5f61217f85828601611fe1565b925050602061219085828601611e7d565b9150509250929050565b5f6121a482611b55565b91506121af83611b55565b92508282039050818111156121c7576121c6611f38565b5b92915050565b5f82825260208201905092915050565b50565b5f6121eb5f836121cd565b91506121f6826121dd565b5f82019050919050565b5f60a0820190506122135f830187611be3565b6122206020830186611be3565b61222d6040830185611d7c565b61223a6060830184611d7c565b818103608083015261224b816121e0565b905095945050505050565b5f6060820190506122695f830186611be3565b6122766020830185611be3565b6122836040830184611d7c565b949350505050565b5f81905092915050565b5f6122a05f8361228b565b91506122ab826121dd565b5f82019050919050565b5f6122bf82612295565b9150819050919050565b5f7fffffffff0000000000000000000000000000000000000000000000000000000082169050919050565b6122fd816122c9565b82525050565b5f6020820190506123165f8301846122f4565b9291505056fea2646970667358221220f513d9c6cfbd7fb07cd7ed042fdb87cbaec6cde1a72fbe7dac22bd2f918e877f64736f6c634300081e0033","linkReferences":{}},"methodIdentifiers":{"buy(uint256)":"d96a094a","cancel(uint256)":"40e58ee5","feeBps()":"24a9d853","feeRecipient()":"46904840","list1155(address,uint256,uint256,uint256)":"8c4bd913","list721(address,uint256,uint256)":"a2b994ef","listings(uint256)":"de74e57b","nextListingId()":"aaccf1ec","owner()":"8da5cb5b","renounceOwnership()":"715018a6","setFee(uint16)":"8e005553","setFeeRecipient(address)":"e74b981b","transferOwnership(address)":"f2fde38b","updatePrice(uint256,uint256)":"82367b2d"},"id":5}